{"abi":[{"type":"constructor","inputs":[{"name":"tokenA","type":"address","internalType":"address"},{"name":"tokenB","type":"address","internalType":"address"},{"name":"exchangeRate","type":"uint256","internalType":"uint256"}],"stateMutability":"nonpayable"},{"type":"function","name":"s_exchangeRate","inputs":[],"outputs":[{"name":"","type":"uint256","internalType":"uint256"}],"stateMutability":"view"},{"type":"function","name":"s_tokenA","inputs":[],"outputs":[{"name":"","type":"address","internalType":"contract IERC20"}],"stateMutability":"view"},{"type":"function","name":"s_tokenB","inputs":[],"outputs":[{"name":"","type":"address","internalType":"contract IERC20"}],"stateMutability":"view"},{"type":"function","name":"swap","inputs":[{"name":"tokenAddress","type":"address","internalType":"address"},{"name":"amount","type":"uint256","internalType":"uint256"}],"outputs":[],"stateMutability":"nonpayable"},{"type":"event","name":"TokenSwapped","inputs":[{"name":"forAddress","type":"address","indexed":true,"internalType":"address"},{"name":"amount","type":"uint256","indexed":true,"internalType":"uint256"}],"anonymous":false},{"type":"error","name":"ReentrancyGuardReentrantCall","inputs":[]},{"type":"error","name":"TokenSwap__AllowanceTooLow","inputs":[{"name":"currentTokenAllowance","type":"uint256","internalType":"uint256"}]},{"type":"error","name":"TokenSwap__TokenAddressNotSwappable","inputs":[]},{"type":"error","name":"TokenSwap__TransferFailed","inputs":[]}],"bytecode":{"object":"0x608060405234801561001057600080fd5b506040516106d43803806106d483398101604081905261002f91610088565b6001600081905580546001600160a01b039485166001600160a01b03199182161790915560028054939094169216919091179091556003556100c4565b80516001600160a01b038116811461008357600080fd5b919050565b60008060006060848603121561009d57600080fd5b6100a68461006c565b92506100b46020850161006c565b9150604084015190509250925092565b610601806100d36000396000f3fe608060405234801561001057600080fd5b506004361061004c5760003560e01c80633e3796c914610051578063ca89474614610081578063d004f0f714610094578063d82be818146100a9575b600080fd5b600254610064906001600160a01b031681565b6040516001600160a01b0390911681526020015b60405180910390f35b600154610064906001600160a01b031681565b6100a76100a2366004610504565b6100c0565b005b6100b260035481565b604051908152602001610078565b6100c8610434565b6001546001600160a01b038381169116148015906100f457506002546001600160a01b03838116911614155b156101125760405163190e740960e31b815260040160405180910390fd5b604051636eb1769f60e11b815233600482015230602482015281906001600160a01b0384169063dd62ed3e90604401602060405180830381865afa15801561015e573d6000803e3d6000fd5b505050506040513d601f19601f82011682018060405250810190610182919061053c565b1161021a57604051636eb1769f60e11b81523360048201523060248201526001600160a01b0383169063dd62ed3e90604401602060405180830381865afa1580156101d1573d6000803e3d6000fd5b505050506040513d601f19601f820116820180604052508101906101f5919061053c565b604051635b30e04760e01b815260040161021191815260200190565b60405180910390fd5b6001546001600160a01b039081169083160361032257600154610248906001600160a01b031633308461045e565b6002546003546001600160a01b039091169063a9059cbb90339061026c9085610555565b6040516001600160e01b031960e085901b1681526001600160a01b03909216600483015260248201526044016020604051808303816000875af11580156102b7573d6000803e3d6000fd5b505050506040513d601f19601f820116820180604052508101906102db9190610580565b506003546102e99082610555565b6040516001600160a01b038416907f5cf069f6412972a6c15aa4f5d0a340bfc369c3118f4cf8960b568ffe7ae4621390600090a3610426565b6002546001600160a01b039081169083160361042657600254610350906001600160a01b031633308461045e565b6001546003546001600160a01b039091169063a9059cbb90339061037490856105a9565b6040516001600160e01b031960e085901b1681526001600160a01b03909216600483015260248201526044016020604051808303816000875af11580156103bf573d6000803e3d6000fd5b505050506040513d601f19601f820116820180604052508101906103e39190610580565b506003546103f190826105a9565b6040516001600160a01b038416907f5cf069f6412972a6c15aa4f5d0a340bfc369c3118f4cf8960b568ffe7ae4621390600090a35b6104306001600055565b5050565b60026000540361045757604051633ee5aeb560e01b815260040160405180910390fd5b6002600055565b6040516323b872dd60e01b81526001600160a01b038481166004830152838116602483015260448201839052600091908616906323b872dd906064016020604051808303816000875af11580156104b9573d6000803e3d6000fd5b505050506040513d601f19601f820116820180604052508101906104dd9190610580565b9050806104fd57604051630922995f60e41b815260040160405180910390fd5b5050505050565b6000806040838503121561051757600080fd5b82356001600160a01b038116811461052e57600080fd5b946020939093013593505050565b60006020828403121561054e57600080fd5b5051919050565b808202811582820484141761057a57634e487b7160e01b600052601160045260246000fd5b92915050565b60006020828403121561059257600080fd5b815180151581146105a257600080fd5b9392505050565b6000826105c657634e487b7160e01b600052601260045260246000fd5b50049056fea2646970667358221220eacb1140a81236c53389d0e91a251982de4d70305b1ce0a4cab282f0b3e598c464736f6c63430008170033","linkReferences":{}},"methodIdentifiers":{"s_exchangeRate()":"d82be818","s_tokenA()":"ca894746","s_tokenB()":"3e3796c9","swap(address,uint256)":"d004f0f7"},"id":28}