{"abi":[{"type":"constructor","inputs":[],"stateMutability":"nonpayable"},{"type":"function","name":"addCandidate","inputs":[{"name":"candidateAddress","type":"address","internalType":"address"}],"outputs":[],"stateMutability":"nonpayable"},{"type":"function","name":"closeVoterRegistration","inputs":[],"outputs":[],"stateMutability":"nonpayable"},{"type":"function","name":"closeVotingReturnWinner","inputs":[],"outputs":[{"name":"","type":"uint256","internalType":"uint256"},{"name":"","type":"uint256","internalType":"uint256"},{"name":"","type":"uint256","internalType":"uint256"}],"stateMutability":"nonpayable"},{"type":"function","name":"getCurrentElectionResults","inputs":[],"outputs":[{"name":"","type":"tuple[]","internalType":"struct DecentralizedVotingSystem.Candidate[]","components":[{"name":"candidateAddress","type":"address","internalType":"address"},{"name":"voteCount","type":"uint256","internalType":"uint256"}]}],"stateMutability":"view"},{"type":"function","name":"getCurrentVotingRound","inputs":[],"outputs":[{"name":"","type":"uint256","internalType":"uint256"}],"stateMutability":"view"},{"type":"function","name":"getUserVoterData","inputs":[],"outputs":[{"name":"","type":"address","internalType":"address"},{"name":"","type":"uint256","internalType":"uint256"}],"stateMutability":"view"},{"type":"function","name":"openVoting","inputs":[],"outputs":[],"stateMutability":"nonpayable"},{"type":"function","name":"openVotingRegistration","inputs":[{"name":"candidateAddresses","type":"address[]","internalType":"address[]"}],"outputs":[],"stateMutability":"nonpayable"},{"type":"function","name":"owner","inputs":[],"outputs":[{"name":"","type":"address","internalType":"address"}],"stateMutability":"view"},{"type":"function","name":"registerToVote","inputs":[],"outputs":[],"stateMutability":"nonpayable"},{"type":"function","name":"renounceOwnership","inputs":[],"outputs":[],"stateMutability":"nonpayable"},{"type":"function","name":"s_candidates","inputs":[{"name":"","type":"uint256","internalType":"uint256"}],"outputs":[{"name":"candidateAddress","type":"address","internalType":"address"},{"name":"voteCount","type":"uint256","internalType":"uint256"}],"stateMutability":"view"},{"type":"function","name":"s_voters","inputs":[{"name":"","type":"address","internalType":"address"}],"outputs":[{"name":"registered","type":"bool","internalType":"bool"},{"name":"voted","type":"bool","internalType":"bool"},{"name":"vote","type":"uint256","internalType":"uint256"},{"name":"votingRound","type":"uint256","internalType":"uint256"}],"stateMutability":"view"},{"type":"function","name":"transferOwnership","inputs":[{"name":"newOwner","type":"address","internalType":"address"}],"outputs":[],"stateMutability":"nonpayable"},{"type":"function","name":"vote","inputs":[{"name":"candidate","type":"uint256","internalType":"uint256"}],"outputs":[],"stateMutability":"nonpayable"},{"type":"event","name":"ElectionWinner","inputs":[{"name":"candidate","type":"uint256","indexed":true,"internalType":"uint256"},{"name":"voteCount","type":"uint256","indexed":true,"internalType":"uint256"},{"name":"votingRound","type":"uint256","indexed":true,"internalType":"uint256"}],"anonymous":false},{"type":"event","name":"NewCandidateAdded","inputs":[{"name":"candidateAddress","type":"address","indexed":true,"internalType":"address"}],"anonymous":false},{"type":"event","name":"OwnershipTransferred","inputs":[{"name":"previousOwner","type":"address","indexed":true,"internalType":"address"},{"name":"newOwner","type":"address","indexed":true,"internalType":"address"}],"anonymous":false},{"type":"event","name":"UserVoted","inputs":[{"name":"voterAddress","type":"address","indexed":true,"internalType":"address"},{"name":"candidateName","type":"address","indexed":true,"internalType":"address"}],"anonymous":false},{"type":"event","name":"VoterRegistered","inputs":[{"name":"voterAddress","type":"address","indexed":true,"internalType":"address"}],"anonymous":false},{"type":"event","name":"VoterRegistrationClosed","inputs":[{"name":"electionNumber","type":"uint256","indexed":true,"internalType":"uint256"},{"name":"time","type":"uint256","indexed":false,"internalType":"uint256"}],"anonymous":false},{"type":"event","name":"VotingOpened","inputs":[{"name":"electionNumber","type":"uint256","indexed":true,"internalType":"uint256"},{"name":"time","type":"uint256","indexed":false,"internalType":"uint256"}],"anonymous":false},{"type":"event","name":"VotingRegistrationOpenAndCandidatesAdded","inputs":[],"anonymous":false},{"type":"error","name":"DecentralizedVotingSystem__AddressAlreadyVoted","inputs":[]},{"type":"error","name":"DecentralizedVotingSystem__AddressDidNotVoteInCurrentElection","inputs":[]},{"type":"error","name":"DecentralizedVotingSystem__AddressNotRegisteredToVote","inputs":[]},{"type":"error","name":"DecentralizedVotingSystem__CannotAddCandidatesWhileVotingIsLive","inputs":[]},{"type":"error","name":"DecentralizedVotingSystem__CurrentVoteInProgress","inputs":[]},{"type":"error","name":"DecentralizedVotingSystem__RegistrationNotOpen","inputs":[]},{"type":"error","name":"DecentralizedVotingSystem__VoterAlreadyRegistered","inputs":[{"name":"userAddress","type":"address","internalType":"address"}]},{"type":"error","name":"DecentralizedVotingSystem__VoterDataOldOrDidNotRegister","inputs":[]},{"type":"error","name":"DecentralizedVotingSystem__VotingNotOpen","inputs":[]},{"type":"error","name":"OwnableInvalidOwner","inputs":[{"name":"owner","type":"address","internalType":"address"}]},{"type":"error","name":"OwnableUnauthorizedAccount","inputs":[{"name":"account","type":"address","internalType":"address"}]}],"bytecode":{"object":"0x608060405234801561001057600080fd5b50338061003757604051631e4fbdf760e01b81526000600482015260240160405180910390fd5b6100408161004b565b50600060015561009b565b600080546001600160a01b038381166001600160a01b0319831681178455604051919092169283917f8be0079c531659141344cd1fd0a4f28419497f9722a3daafe3b4186f6b6457e09190a35050565b610cbb806100aa6000396000f3fe608060405234801561001057600080fd5b50600436106100f55760003560e01c80638b98e7b111610097578063caa23dc511610066578063caa23dc514610213578063d7b7f7191461023a578063df9c35d81461024d578063f2fde38b1461025557600080fd5b80638b98e7b1146101d75780638da5cb5b146101df57806397bc9d34146101fa578063affc06701461020b57600080fd5b80633acd75f8116100d35780633acd75f81461014a5780635f039ed21461015d5780636e433ae214610172578063715018a6146101cf57600080fd5b80630121b93f146100fa578063086c0ec61461010f5780632cb8f46e14610122575b600080fd5b61010d610108366004610abe565b610268565b005b61010d61011d366004610b09565b6103ef565b61012a610505565b604080519384526020840192909252908201526060015b60405180910390f35b61010d610158366004610bce565b61061e565b61016561070e565b6040516101419190610bf0565b6101ad610180366004610bce565b60046020526000908152604090208054600182015460029092015460ff8083169361010090930416919084565b6040805194151585529215156020850152918301526060820152608001610141565b61010d610783565b61010d610797565b6000546040516001600160a01b039091168152602001610141565b600154604051908152602001610141565b61010d61084c565b61021b61089b565b604080516001600160a01b039093168352602083019190915201610141565b61021b610248366004610abe565b610942565b61010d61097a565b61010d610263366004610bce565b6109c0565b60035460ff1615156001146102905760405163497dfd4560e11b815260040160405180910390fd5b60015433600090815260046020526040902060020154146102c457604051637acafd8560e01b815260040160405180910390fd5b33600090815260046020526040902054610100900460ff1615156001036102fe57604051630104125d60e11b815260040160405180910390fd5b3360009081526004602052604090205460ff16151560011461033357604051639f0f902b60e01b815260040160405180910390fd5b336000908152600460205260409020805461ff00191661010017815560018054600283015501819055600580548290811061037057610370610c48565b60009182526020822060016002909202010180549161038e83610c5e565b9190505550600581815481106103a6576103a6610c48565b600091825260208220600290910201546040516001600160a01b039091169133917f960323d907e7135e739238ccce8cb76796febdae5661285dc7d165acf5e5dc069190a35b50565b6103f76109fb565b61040360056000610a78565b6001805490600061041383610c5e565b909155505060035460ff16151560010361044057604051631b385e4f60e11b815260040160405180910390fd5b60005b81518110156104c9576005604051806040016040528084848151811061046b5761046b610c48565b6020908102919091018101516001600160a01b039081168352600092820183905284546001808201875595845292829020845160029094020180546001600160a01b0319169390911692909217825591909101519082015501610443565b506003805461ff0019166101001790556040517ff6e47b733cbaed73742424e891ce8b8c4ad62725bec7ceb4a1c8a1a4007c09f690600090a150565b60008060006105126109fb565b6003805460ff19169055600080805b60055481101561058a57826005828154811061053f5761053f610c48565b9060005260206000209060020201600101541115610582576005818154811061056a5761056a610c48565b90600052602060002090600202016001015492508091505b600101610521565b506002600582815481106105a0576105a0610c48565b6000918252602080832060029092029091015483546001818101865594845291832090910180546001600160a01b0319166001600160a01b0390921691909117905590546040519091849184917fab3ee3c4883be16e5905e9da885f51c0b9c190fb2e30dead23ba14bbf1dd1c7291a4600154909591945092509050565b6106266109fb565b60035460ff16151560010361064e5760405163557dab9960e11b815260040160405180910390fd5b6040805180820182526001600160a01b038381168083526000602084018181526005805460018101825590835294517f036b6384b5eca791c62761152d0c79bb0604c104a5fb6f4eb0703f3154bb3db0600290960295860180546001600160a01b031916919095161790935591517f036b6384b5eca791c62761152d0c79bb0604c104a5fb6f4eb0703f3154bb3db190930192909255915190917f55bd17b6b73c5e6a663170cd9851e3f0a0674fbaf56014ac9273f524b11968f691a250565b60606005805480602002602001604051908101604052809291908181526020016000905b8282101561077a576000848152602090819020604080518082019091526002850290910180546001600160a01b03168252600190810154828401529083529092019101610732565b50505050905090565b61078b6109fb565b6107956000610a28565b565b3360009081526004602052604090205460ff1615156001036107d35760405163b275ba2960e01b81523360048201526024015b60405180910390fd5b60035460ff6101009091041615156001146108015760405163456415ef60e11b815260040160405180910390fd5b33600081815260046020526040808220805460ff19166001908117825554600290910155517fb6be2187d059cc2a55fe29e0e503b566e1e0f8c8780096e185429350acffd3dd9190a2565b6108546109fb565b6003805460ff19166001908117909155546040514281527f58fab80f37bcc4e49a4ad82322a4ca5d63424dcbfc6a23bff2366588fb524b5c906020015b60405180910390a2565b336000908152600460205260408120600201546001548291148015906108db57503360009081526004602052604090205460ff6101009091041615156001145b156108f95760405163250c5c4d60e11b815260040160405180910390fd5b33600090815260046020526040902060010154600580548290811061092057610920610c48565b60009182526020909120600290910201546001600160a01b0316939092509050565b6005818154811061095257600080fd5b6000918252602090912060029091020180546001909101546001600160a01b03909116915082565b6109826109fb565b6003805461ff00191690556001546040514281527fc05d2fe8380ccfde4a260bf556cbe1e3534805f8711a014881ecd2f2fde7f66d90602001610891565b6109c86109fb565b6001600160a01b0381166109f257604051631e4fbdf760e01b8152600060048201526024016107ca565b6103ec81610a28565b6000546001600160a01b031633146107955760405163118cdaa760e01b81523360048201526024016107ca565b600080546001600160a01b038381166001600160a01b0319831681178455604051919092169283917f8be0079c531659141344cd1fd0a4f28419497f9722a3daafe3b4186f6b6457e09190a35050565b50805460008255600202906000526020600020908101906103ec91905b80821115610aba5780546001600160a01b031916815560006001820155600201610a95565b5090565b600060208284031215610ad057600080fd5b5035919050565b634e487b7160e01b600052604160045260246000fd5b80356001600160a01b0381168114610b0457600080fd5b919050565b60006020808385031215610b1c57600080fd5b823567ffffffffffffffff80821115610b3457600080fd5b818501915085601f830112610b4857600080fd5b813581811115610b5a57610b5a610ad7565b8060051b604051601f19603f83011681018181108582111715610b7f57610b7f610ad7565b604052918252848201925083810185019188831115610b9d57600080fd5b938501935b82851015610bc257610bb385610aed565b84529385019392850192610ba2565b98975050505050505050565b600060208284031215610be057600080fd5b610be982610aed565b9392505050565b602080825282518282018190526000919060409081850190868401855b82811015610c3b57815180516001600160a01b03168552860151868501529284019290850190600101610c0d565b5091979650505050505050565b634e487b7160e01b600052603260045260246000fd5b600060018201610c7e57634e487b7160e01b600052601160045260246000fd5b506001019056fea26469706673582212203cd0933bd8ea22ceae4cf0c4125efbe338cd0a0f87f84fbed316f04a4d43f93b64736f6c63430008170033","linkReferences":{}},"methodIdentifiers":{"addCandidate(address)":"3acd75f8","closeVoterRegistration()":"df9c35d8","closeVotingReturnWinner()":"2cb8f46e","getCurrentElectionResults()":"5f039ed2","getCurrentVotingRound()":"97bc9d34","getUserVoterData()":"caa23dc5","openVoting()":"affc0670","openVotingRegistration(address[])":"086c0ec6","owner()":"8da5cb5b","registerToVote()":"8b98e7b1","renounceOwnership()":"715018a6","s_candidates(uint256)":"d7b7f719","s_voters(address)":"6e433ae2","transferOwnership(address)":"f2fde38b","vote(uint256)":"0121b93f"},"id":19}