{"abi":[{"type":"constructor","inputs":[{"name":"ownerAddress","type":"address","internalType":"address"},{"name":"tokenAddress","type":"address","internalType":"address"},{"name":"preSaleMinTotalCap","type":"uint256","internalType":"uint256"},{"name":"preSaleMaxTotalCap","type":"uint256","internalType":"uint256"},{"name":"preSaleMinContribution","type":"uint256","internalType":"uint256"},{"name":"preSaleMaxContribution","type":"uint256","internalType":"uint256"},{"name":"publicSaleMaxTotalCap","type":"uint256","internalType":"uint256"},{"name":"publicSaleMinTotalCap","type":"uint256","internalType":"uint256"},{"name":"publicSaleMinContribution","type":"uint256","internalType":"uint256"},{"name":"publicSaleMaxContribution","type":"uint256","internalType":"uint256"}],"stateMutability":"nonpayable"},{"type":"function","name":"closePreSale","inputs":[],"outputs":[],"stateMutability":"nonpayable"},{"type":"function","name":"closePublicSale","inputs":[],"outputs":[],"stateMutability":"nonpayable"},{"type":"function","name":"contributePreSale","inputs":[],"outputs":[],"stateMutability":"payable"},{"type":"function","name":"contributePublicSale","inputs":[],"outputs":[],"stateMutability":"payable"},{"type":"function","name":"distributeTokens","inputs":[{"name":"tokenAddress","type":"address","internalType":"address"},{"name":"amount","type":"uint256","internalType":"uint256"},{"name":"transferAddress","type":"address","internalType":"address"}],"outputs":[],"stateMutability":"nonpayable"},{"type":"function","name":"openPreSale","inputs":[],"outputs":[],"stateMutability":"nonpayable"},{"type":"function","name":"openPublicSale","inputs":[],"outputs":[],"stateMutability":"nonpayable"},{"type":"function","name":"owner","inputs":[],"outputs":[{"name":"","type":"address","internalType":"address"}],"stateMutability":"view"},{"type":"function","name":"refund","inputs":[],"outputs":[],"stateMutability":"nonpayable"},{"type":"function","name":"renounceOwnership","inputs":[],"outputs":[],"stateMutability":"nonpayable"},{"type":"function","name":"transferOwnership","inputs":[{"name":"newOwner","type":"address","internalType":"address"}],"outputs":[],"stateMutability":"nonpayable"},{"type":"function","name":"withdraw","inputs":[],"outputs":[],"stateMutability":"nonpayable"},{"type":"event","name":"ContributionsRefunded","inputs":[{"name":"userAddress","type":"address","indexed":true,"internalType":"address"},{"name":"refundAmount","type":"uint256","indexed":true,"internalType":"uint256"}],"anonymous":false},{"type":"event","name":"OwnershipTransferred","inputs":[{"name":"previousOwner","type":"address","indexed":true,"internalType":"address"},{"name":"newOwner","type":"address","indexed":true,"internalType":"address"}],"anonymous":false},{"type":"event","name":"PreSaleClosed","inputs":[{"name":"time","type":"uint256","indexed":true,"internalType":"uint256"},{"name":"owner","type":"address","indexed":true,"internalType":"address"}],"anonymous":false},{"type":"event","name":"PreSaleContribution","inputs":[{"name":"userAddress","type":"address","indexed":true,"internalType":"address"},{"name":"amount","type":"uint256","indexed":true,"internalType":"uint256"}],"anonymous":false},{"type":"event","name":"PreSaleOpened","inputs":[{"name":"time","type":"uint256","indexed":true,"internalType":"uint256"},{"name":"owner","type":"address","indexed":true,"internalType":"address"}],"anonymous":false},{"type":"event","name":"PublicSaleClosed","inputs":[{"name":"time","type":"uint256","indexed":true,"internalType":"uint256"},{"name":"owner","type":"address","indexed":true,"internalType":"address"}],"anonymous":false},{"type":"event","name":"PublicSaleContribution","inputs":[{"name":"userAddress","type":"address","indexed":true,"internalType":"address"},{"name":"amount","type":"uint256","indexed":true,"internalType":"uint256"}],"anonymous":false},{"type":"event","name":"PublicSaleOpened","inputs":[{"name":"time","type":"uint256","indexed":true,"internalType":"uint256"},{"name":"owner","type":"address","indexed":true,"internalType":"address"}],"anonymous":false},{"type":"error","name":"OwnableInvalidOwner","inputs":[{"name":"owner","type":"address","internalType":"address"}]},{"type":"error","name":"OwnableUnauthorizedAccount","inputs":[{"name":"account","type":"address","internalType":"address"}]},{"type":"error","name":"ReentrancyGuardReentrantCall","inputs":[]},{"type":"error","name":"TokenSale__AddressHasContributedAnything","inputs":[]},{"type":"error","name":"TokenSale__CannotStartPreSaleWhilePublicSaleIsOpen","inputs":[]},{"type":"error","name":"TokenSale__CannotStartPublicSaleWhilePublicSaleIsOpen","inputs":[]},{"type":"error","name":"TokenSale__MaxContributionLimitReached","inputs":[{"name":"maxAmount","type":"uint256","internalType":"uint256"},{"name":"attemptedContributions","type":"uint256","internalType":"uint256"}]},{"type":"error","name":"TokenSale__MinContributionAmountNotReached","inputs":[{"name":"minAmount","type":"uint256","internalType":"uint256"},{"name":"attemptedContributions","type":"uint256","internalType":"uint256"}]},{"type":"error","name":"TokenSale__MinContributionsMetRefundNotAvailable","inputs":[]},{"type":"error","name":"TokenSale__PreSaleCannotBeClosed","inputs":[]},{"type":"error","name":"TokenSale__PreSaleNotOpen","inputs":[]},{"type":"error","name":"TokenSale__PublicSaleCannotBeClosed","inputs":[]},{"type":"error","name":"TokenSale__PublicSaleNotOpen","inputs":[]},{"type":"error","name":"TokenSale__TokenAddressIsNotValid","inputs":[]},{"type":"error","name":"TokenSale__TotalMaxContributionsForPreSaleReached","inputs":[{"name":"currentTotalContributions","type":"uint256","internalType":"uint256"},{"name":"maxContributionsAllowed","type":"uint256","internalType":"uint256"}]},{"type":"error","name":"TokenSale__TotalMaxContributionsForPublicSaleReached","inputs":[{"name":"currentTotalContributions","type":"uint256","internalType":"uint256"},{"name":"maxContributionsAllowed","type":"uint256","internalType":"uint256"}]},{"type":"error","name":"TokenSale__TransferFailed","inputs":[]},{"type":"error","name":"TokenSale__UnableToRefundWhileSaleIsLive","inputs":[]}],"bytecode":{"object":"0x608060405234801561001057600080fd5b50604051610e4b380380610e4b83398101604081905261002f91610154565b896001600160a01b03811661005e57604051631e4fbdf760e01b81526000600482015260240160405180910390fd5b610067816100e8565b50600180556001600160a01b03891661009357604051630d6e91c960e31b815260040160405180910390fd5b600280546009805460ff191690556001600160a81b0319166001600160a01b039a909a1699909917909855600496909655600594909455600692909255600755600b91909155600c55600d55600e55506101d6565b600080546001600160a01b038381166001600160a01b0319831681178455604051919092169283917f8be0079c531659141344cd1fd0a4f28419497f9722a3daafe3b4186f6b6457e09190a35050565b80516001600160a01b038116811461014f57600080fd5b919050565b6000806000806000806000806000806101408b8d03121561017457600080fd5b61017d8b610138565b995061018b60208c01610138565b985060408b0151975060608b0151965060808b0151955060a08b0151945060c08b0151935060e08b015192506101008b015191506101208b015190509295989b9194979a5092959850565b610c66806101e56000396000f3fe6080604052600436106100a75760003560e01c80638da5cb5b116100645780638da5cb5b1461011f578063933742a81461014b5780639cb1635b14610153578063b585209b14610173578063c1cd1d5914610188578063f2fde38b1461019d57600080fd5b80632af89179146100ac57806333bffccc146100c35780633ccfd60b146100d8578063590e1ae3146100ed57806359d213fe14610102578063715018a61461010a575b600080fd5b3480156100b857600080fd5b506100c16101bd565b005b3480156100cf57600080fd5b506100c161023d565b3480156100e457600080fd5b506100c16102af565b3480156100f957600080fd5b506100c1610332565b6100c16104b6565b34801561011657600080fd5b506100c16106ad565b34801561012b57600080fd5b50600054604080516001600160a01b039092168252519081900360200190f35b6100c16106bf565b34801561015f57600080fd5b506100c161016e366004610b89565b6108aa565b34801561017f57600080fd5b506100c1610960565b34801561019457600080fd5b506100c1610a06565b3480156101a957600080fd5b506100c16101b8366004610bc5565b610a88565b6101c5610ac6565b60095460ff1615806101e55750600254600160a01b900460ff1615156001145b1561020357604051630ad4768d60e11b815260040160405180910390fd5b6009805460ff19169055604051339042907f29910a2641a46165773bba65bd60a1230304c7622864640a676eb7cd4562ed0790600090a35b565b610245610ac6565b60095460ff16151560010361026d5760405163a385e0f360e01b815260040160405180910390fd5b6002805460ff60a01b1916600160a01b179055604051339042907f38c41dfec37aa0f5e303647c37ad10aeacd4a35b2343e6cc46842f28949fbd5f90600090a3565b6102b7610af3565b6102bf610ac6565b604051600090339047908381818185875af1925050503d8060008114610301576040519150601f19603f3d011682016040523d82523d6000602084013e610306565b606091505b505090508061032857604051634bd75c3360e11b815260040160405180910390fd5b5061023b60018055565b61033a610af3565b600254600160a01b900460ff1615156001148061035e575060095460ff1615156001145b1561037c57604051630384933560e01b815260040160405180910390fd5b6004546003541015806103935750600b54600a5410155b156103b15760405163c58284c160e01b815260040160405180910390fd5b33600090815260086020908152604080832054600f9092528220546103d69190610be7565b9050806000036103f957604051631465406b60e01b815260040160405180910390fd5b336000818152600860209081526040808320839055600f9091528082208290555190919083908381818185875af1925050503d8060008114610457576040519150601f19603f3d011682016040523d82523d6000602084013e61045c565b606091505b505090508061047e57604051634bd75c3360e11b815260040160405180910390fd5b604051829033907f2a503ee9c453910a31badc56fdfea640f8c653abdc599ab7533f898ac45f8c5e90600090a3505061023b60018055565b6104be610af3565b600254600160a01b900460ff166104e857604051632bebf14960e21b815260040160405180910390fd5b600654336000908152600860205260409020546105059034610be7565b10156105365760065460405163471c6b8360e01b815260048101919091523460248201526044015b60405180910390fd5b600754336000908152600860205260409020546105539034610be7565b111561057f5760075460405163e1e209fd60e01b8152600481019190915234602482015260440161052d565b60055460035461058f9034610be7565b11156105bd5760035460055460405163b0834d8360e01b81526004810192909252602482015260440161052d565b33600090815260086020526040812080543492906105dc908490610be7565b909155505060025460405163a9059cbb60e01b81523360048201523460248201526000916001600160a01b03169063a9059cbb906044016020604051808303816000875af1158015610632573d6000803e3d6000fd5b505050506040513d601f19601f820116820180604052508101906106569190610c0e565b90508061067657604051634bd75c3360e11b815260040160405180910390fd5b604051349033907fef3c9dabc5f46aaa34ad651859e7809b063185993acc5c0aec87881f5480b1e590600090a35061023b60018055565b6106b5610ac6565b61023b6000610b1d565b6106c7610af3565b60095460ff166106ea57604051638c03486560e01b815260040160405180910390fd5b600d54336000908152600f60205260409020546107079034610be7565b101561073357600d5460405163471c6b8360e01b8152600481019190915234602482015260440161052d565b600e54336000908152600f60205260409020546107509034610be7565b111561077c57600e5460405163e1e209fd60e01b8152600481019190915234602482015260440161052d565b600c54600a5461078c9034610be7565b11156107ba57600a54600c546040516341be8cd960e01b81526004810192909252602482015260440161052d565b336000908152600f6020526040812080543492906107d9908490610be7565b909155505060025460405163a9059cbb60e01b81523360048201523460248201526000916001600160a01b03169063a9059cbb906044016020604051808303816000875af115801561082f573d6000803e3d6000fd5b505050506040513d601f19601f820116820180604052508101906108539190610c0e565b90508061087357604051634bd75c3360e11b815260040160405180910390fd5b604051349033907f7a053e992f47558911210f974f73a9002f498ff8d5df41b89011c82e15298f8c90600090a35061023b60018055565b6108b2610af3565b6108ba610ac6565b60405163a9059cbb60e01b81526001600160a01b038281166004830152602482018490526000919085169063a9059cbb906044016020604051808303816000875af115801561090d573d6000803e3d6000fd5b505050506040513d601f19601f820116820180604052508101906109319190610c0e565b90508061095157604051634bd75c3360e11b815260040160405180910390fd5b5061095b60018055565b505050565b610968610ac6565b60095460ff1615156001036109905760405163a02b1bd760e01b815260040160405180910390fd5b6002805460ff60a01b191690556009805460ff19166001179055604051339042907f72c15aaa092bc164a7c8cf7d23d86d1127b52d3cc3e6c9cb6281996999f6d93b90600090a3604051339042907f14b68a7aadfa65b0f2fa9483990a8142e31f24b558c24dde887b2ae7415bbd2390600090a3565b610a0e610ac6565b60095460ff16151560011480610a2e5750600254600160a01b900460ff16155b15610a4c5760405163ad0faadb60e01b815260040160405180910390fd5b6002805460ff60a01b19169055604051339042907f72c15aaa092bc164a7c8cf7d23d86d1127b52d3cc3e6c9cb6281996999f6d93b90600090a3565b610a90610ac6565b6001600160a01b038116610aba57604051631e4fbdf760e01b81526000600482015260240161052d565b610ac381610b1d565b50565b6000546001600160a01b0316331461023b5760405163118cdaa760e01b815233600482015260240161052d565b600260015403610b1657604051633ee5aeb560e01b815260040160405180910390fd5b6002600155565b600080546001600160a01b038381166001600160a01b0319831681178455604051919092169283917f8be0079c531659141344cd1fd0a4f28419497f9722a3daafe3b4186f6b6457e09190a35050565b80356001600160a01b0381168114610b8457600080fd5b919050565b600080600060608486031215610b9e57600080fd5b610ba784610b6d565b925060208401359150610bbc60408501610b6d565b90509250925092565b600060208284031215610bd757600080fd5b610be082610b6d565b9392505050565b80820180821115610c0857634e487b7160e01b600052601160045260246000fd5b92915050565b600060208284031215610c2057600080fd5b81518015158114610be057600080fdfea2646970667358221220fe6547d860d063a25a8df89227f89f8e84f88688b85234c29de84e7071d0e92b64736f6c63430008170033","linkReferences":{}},"methodIdentifiers":{"closePreSale()":"c1cd1d59","closePublicSale()":"2af89179","contributePreSale()":"59d213fe","contributePublicSale()":"933742a8","distributeTokens(address,uint256,address)":"9cb1635b","openPreSale()":"33bffccc","openPublicSale()":"b585209b","owner()":"8da5cb5b","refund()":"590e1ae3","renounceOwnership()":"715018a6","transferOwnership(address)":"f2fde38b","withdraw()":"3ccfd60b"},"id":24}