{"abi":[{"type":"constructor","inputs":[{"name":"ownerAddress","type":"address","internalType":"address"},{"name":"tokenAddress","type":"address","internalType":"address"},{"name":"preSaleMinTotalCap","type":"uint256","internalType":"uint256"},{"name":"preSaleMaxTotalCap","type":"uint256","internalType":"uint256"},{"name":"preSaleMinContribution","type":"uint256","internalType":"uint256"},{"name":"preSaleMaxContribution","type":"uint256","internalType":"uint256"},{"name":"publicSaleMaxTotalCap","type":"uint256","internalType":"uint256"},{"name":"publicSaleMinTotalCap","type":"uint256","internalType":"uint256"},{"name":"publicSaleMinContribution","type":"uint256","internalType":"uint256"},{"name":"publicSaleMaxContribution","type":"uint256","internalType":"uint256"}],"stateMutability":"nonpayable"},{"type":"function","name":"closePreSale","inputs":[],"outputs":[],"stateMutability":"nonpayable"},{"type":"function","name":"closePublicSale","inputs":[],"outputs":[],"stateMutability":"nonpayable"},{"type":"function","name":"contributePreSale","inputs":[],"outputs":[],"stateMutability":"payable"},{"type":"function","name":"contributePublicSale","inputs":[],"outputs":[],"stateMutability":"payable"},{"type":"function","name":"distributeTokens","inputs":[{"name":"tokenAddress","type":"address","internalType":"address"},{"name":"amount","type":"uint256","internalType":"uint256"},{"name":"transferAddress","type":"address","internalType":"address"}],"outputs":[],"stateMutability":"nonpayable"},{"type":"function","name":"openPreSale","inputs":[],"outputs":[],"stateMutability":"nonpayable"},{"type":"function","name":"openPublicSale","inputs":[],"outputs":[],"stateMutability":"nonpayable"},{"type":"function","name":"owner","inputs":[],"outputs":[{"name":"","type":"address","internalType":"address"}],"stateMutability":"view"},{"type":"function","name":"refund","inputs":[],"outputs":[],"stateMutability":"nonpayable"},{"type":"function","name":"renounceOwnership","inputs":[],"outputs":[],"stateMutability":"nonpayable"},{"type":"function","name":"transferOwnership","inputs":[{"name":"newOwner","type":"address","internalType":"address"}],"outputs":[],"stateMutability":"nonpayable"},{"type":"event","name":"ContributionsRefunded","inputs":[{"name":"userAddress","type":"address","indexed":true,"internalType":"address"},{"name":"refundAmount","type":"uint256","indexed":true,"internalType":"uint256"}],"anonymous":false},{"type":"event","name":"OwnershipTransferred","inputs":[{"name":"previousOwner","type":"address","indexed":true,"internalType":"address"},{"name":"newOwner","type":"address","indexed":true,"internalType":"address"}],"anonymous":false},{"type":"event","name":"PreSaleClosed","inputs":[{"name":"time","type":"uint256","indexed":true,"internalType":"uint256"},{"name":"owner","type":"address","indexed":true,"internalType":"address"}],"anonymous":false},{"type":"event","name":"PreSaleContribution","inputs":[{"name":"userAddress","type":"address","indexed":true,"internalType":"address"},{"name":"amount","type":"uint256","indexed":true,"internalType":"uint256"}],"anonymous":false},{"type":"event","name":"PreSaleOpened","inputs":[{"name":"time","type":"uint256","indexed":true,"internalType":"uint256"},{"name":"owner","type":"address","indexed":true,"internalType":"address"}],"anonymous":false},{"type":"event","name":"PublicSaleContribution","inputs":[{"name":"userAddress","type":"address","indexed":true,"internalType":"address"},{"name":"amount","type":"uint256","indexed":true,"internalType":"uint256"}],"anonymous":false},{"type":"event","name":"PublicSaleOpened","inputs":[{"name":"time","type":"uint256","indexed":true,"internalType":"uint256"},{"name":"owner","type":"address","indexed":true,"internalType":"address"}],"anonymous":false},{"type":"error","name":"OwnableInvalidOwner","inputs":[{"name":"owner","type":"address","internalType":"address"}]},{"type":"error","name":"OwnableUnauthorizedAccount","inputs":[{"name":"account","type":"address","internalType":"address"}]},{"type":"error","name":"ReentrancyGuardReentrantCall","inputs":[]},{"type":"error","name":"TokenSale__AddressHasContributedAnything","inputs":[]},{"type":"error","name":"TokenSale__CannotStartPreSaleWhilePublicSaleIsOpen","inputs":[]},{"type":"error","name":"TokenSale__CannotStartPublicSaleWhilePublicSaleIsOpen","inputs":[]},{"type":"error","name":"TokenSale__MaxContributionLimitReached","inputs":[{"name":"maxAmount","type":"uint256","internalType":"uint256"},{"name":"attemptedContributions","type":"uint256","internalType":"uint256"}]},{"type":"error","name":"TokenSale__MinContributionAmountNotReached","inputs":[{"name":"minAmount","type":"uint256","internalType":"uint256"},{"name":"attemptedContributions","type":"uint256","internalType":"uint256"}]},{"type":"error","name":"TokenSale__MinContributionsMetRefundNotAvailable","inputs":[]},{"type":"error","name":"TokenSale__PreSaleCannotBeClosed","inputs":[]},{"type":"error","name":"TokenSale__PreSaleNotOpen","inputs":[]},{"type":"error","name":"TokenSale__PublicSaleCannotBeClosed","inputs":[]},{"type":"error","name":"TokenSale__PublicSaleNotOpen","inputs":[]},{"type":"error","name":"TokenSale__TokenAddressIsNotValid","inputs":[]},{"type":"error","name":"TokenSale__TotalMaxContributionsForPreSaleReached","inputs":[{"name":"currentTotalContributions","type":"uint256","internalType":"uint256"},{"name":"maxContributionsAllowed","type":"uint256","internalType":"uint256"}]},{"type":"error","name":"TokenSale__TotalMaxContributionsForPublicSaleReached","inputs":[{"name":"currentTotalContributions","type":"uint256","internalType":"uint256"},{"name":"maxContributionsAllowed","type":"uint256","internalType":"uint256"}]},{"type":"error","name":"TokenSale__TransferFailed","inputs":[]},{"type":"error","name":"TokenSale__UnableToRefundWhileSaleIsLive","inputs":[]}],"bytecode":{"object":"0x608060405234801561001057600080fd5b50604051610d70380380610d7083398101604081905261002f91610154565b896001600160a01b03811661005e57604051631e4fbdf760e01b81526000600482015260240160405180910390fd5b610067816100e8565b50600180556001600160a01b03891661009357604051630d6e91c960e31b815260040160405180910390fd5b600280546009805460ff191690556001600160a81b0319166001600160a01b039a909a1699909917909855600496909655600594909455600692909255600755600b91909155600c55600d55600e55506101d6565b600080546001600160a01b038381166001600160a01b0319831681178455604051919092169283917f8be0079c531659141344cd1fd0a4f28419497f9722a3daafe3b4186f6b6457e09190a35050565b80516001600160a01b038116811461014f57600080fd5b919050565b6000806000806000806000806000806101408b8d03121561017457600080fd5b61017d8b610138565b995061018b60208c01610138565b985060408b0151975060608b0151965060808b0151955060a08b0151945060c08b0151935060e08b015192506101008b015191506101208b015190509295989b9194979a5092959850565b610b8b806101e56000396000f3fe60806040526004361061009c5760003560e01c80638da5cb5b116100645780638da5cb5b146100ff578063933742a81461012b5780639cb1635b14610133578063b585209b14610153578063c1cd1d5914610168578063f2fde38b1461017d57600080fd5b80632af89179146100a157806333bffccc146100b8578063590e1ae3146100cd57806359d213fe146100e2578063715018a6146100ea575b600080fd5b3480156100ad57600080fd5b506100b661019d565b005b3480156100c457600080fd5b506100b66101e5565b3480156100d957600080fd5b506100b6610257565b6100b66103db565b3480156100f657600080fd5b506100b66105d2565b34801561010b57600080fd5b50600054604080516001600160a01b039092168252519081900360200190f35b6100b66105e4565b34801561013f57600080fd5b506100b661014e366004610aae565b6107cf565b34801561015f57600080fd5b506100b6610885565b34801561017457600080fd5b506100b661092b565b34801561018957600080fd5b506100b6610198366004610aea565b6109ad565b6101a56109eb565b60095460ff1615806101c55750600254600160a01b900460ff1615156001145b156101e357604051630ad4768d60e11b815260040160405180910390fd5b565b6101ed6109eb565b60095460ff1615156001036102155760405163a385e0f360e01b815260040160405180910390fd5b6002805460ff60a01b1916600160a01b179055604051339042907f38c41dfec37aa0f5e303647c37ad10aeacd4a35b2343e6cc46842f28949fbd5f90600090a3565b61025f610a18565b600254600160a01b900460ff16151560011480610283575060095460ff1615156001145b156102a157604051630384933560e01b815260040160405180910390fd5b6004546003541015806102b85750600b54600a5410155b156102d65760405163c58284c160e01b815260040160405180910390fd5b33600090815260086020908152604080832054600f9092528220546102fb9190610b0c565b90508060000361031e57604051631465406b60e01b815260040160405180910390fd5b336000818152600860209081526040808320839055600f9091528082208290555190919083908381818185875af1925050503d806000811461037c576040519150601f19603f3d011682016040523d82523d6000602084013e610381565b606091505b50509050806103a357604051634bd75c3360e11b815260040160405180910390fd5b604051829033907f2a503ee9c453910a31badc56fdfea640f8c653abdc599ab7533f898ac45f8c5e90600090a350506101e360018055565b6103e3610a18565b600254600160a01b900460ff1661040d57604051632bebf14960e21b815260040160405180910390fd5b6006543360009081526008602052604090205461042a9034610b0c565b101561045b5760065460405163471c6b8360e01b815260048101919091523460248201526044015b60405180910390fd5b600754336000908152600860205260409020546104789034610b0c565b11156104a45760075460405163e1e209fd60e01b81526004810191909152346024820152604401610452565b6005546003546104b49034610b0c565b11156104e25760035460055460405163b0834d8360e01b815260048101929092526024820152604401610452565b3360009081526008602052604081208054349290610501908490610b0c565b909155505060025460405163a9059cbb60e01b81523360048201523460248201526000916001600160a01b03169063a9059cbb906044016020604051808303816000875af1158015610557573d6000803e3d6000fd5b505050506040513d601f19601f8201168201806040525081019061057b9190610b33565b90508061059b57604051634bd75c3360e11b815260040160405180910390fd5b604051349033907fef3c9dabc5f46aaa34ad651859e7809b063185993acc5c0aec87881f5480b1e590600090a3506101e360018055565b6105da6109eb565b6101e36000610a42565b6105ec610a18565b60095460ff1661060f57604051638c03486560e01b815260040160405180910390fd5b600d54336000908152600f602052604090205461062c9034610b0c565b101561065857600d5460405163471c6b8360e01b81526004810191909152346024820152604401610452565b600e54336000908152600f60205260409020546106759034610b0c565b11156106a157600e5460405163e1e209fd60e01b81526004810191909152346024820152604401610452565b600c54600a546106b19034610b0c565b11156106df57600a54600c546040516341be8cd960e01b815260048101929092526024820152604401610452565b336000908152600f6020526040812080543492906106fe908490610b0c565b909155505060025460405163a9059cbb60e01b81523360048201523460248201526000916001600160a01b03169063a9059cbb906044016020604051808303816000875af1158015610754573d6000803e3d6000fd5b505050506040513d601f19601f820116820180604052508101906107789190610b33565b90508061079857604051634bd75c3360e11b815260040160405180910390fd5b604051349033907f7a053e992f47558911210f974f73a9002f498ff8d5df41b89011c82e15298f8c90600090a3506101e360018055565b6107d7610a18565b6107df6109eb565b60405163a9059cbb60e01b81526001600160a01b038281166004830152602482018490526000919085169063a9059cbb906044016020604051808303816000875af1158015610832573d6000803e3d6000fd5b505050506040513d601f19601f820116820180604052508101906108569190610b33565b90508061087657604051634bd75c3360e11b815260040160405180910390fd5b5061088060018055565b505050565b61088d6109eb565b60095460ff1615156001036108b55760405163a02b1bd760e01b815260040160405180910390fd5b6002805460ff60a01b191690556009805460ff19166001179055604051339042907f72c15aaa092bc164a7c8cf7d23d86d1127b52d3cc3e6c9cb6281996999f6d93b90600090a3604051339042907f14b68a7aadfa65b0f2fa9483990a8142e31f24b558c24dde887b2ae7415bbd2390600090a3565b6109336109eb565b60095460ff161515600114806109535750600254600160a01b900460ff16155b156109715760405163ad0faadb60e01b815260040160405180910390fd5b6002805460ff60a01b19169055604051339042907f72c15aaa092bc164a7c8cf7d23d86d1127b52d3cc3e6c9cb6281996999f6d93b90600090a3565b6109b56109eb565b6001600160a01b0381166109df57604051631e4fbdf760e01b815260006004820152602401610452565b6109e881610a42565b50565b6000546001600160a01b031633146101e35760405163118cdaa760e01b8152336004820152602401610452565b600260015403610a3b57604051633ee5aeb560e01b815260040160405180910390fd5b6002600155565b600080546001600160a01b038381166001600160a01b0319831681178455604051919092169283917f8be0079c531659141344cd1fd0a4f28419497f9722a3daafe3b4186f6b6457e09190a35050565b80356001600160a01b0381168114610aa957600080fd5b919050565b600080600060608486031215610ac357600080fd5b610acc84610a92565b925060208401359150610ae160408501610a92565b90509250925092565b600060208284031215610afc57600080fd5b610b0582610a92565b9392505050565b80820180821115610b2d57634e487b7160e01b600052601160045260246000fd5b92915050565b600060208284031215610b4557600080fd5b81518015158114610b0557600080fdfea2646970667358221220c92990c233275f6556cb1f497c30d237568c9683601488ea9108ea919ac9852164736f6c63430008170033","linkReferences":{}},"methodIdentifiers":{"closePreSale()":"c1cd1d59","closePublicSale()":"2af89179","contributePreSale()":"59d213fe","contributePublicSale()":"933742a8","distributeTokens(address,uint256,address)":"9cb1635b","openPreSale()":"33bffccc","openPublicSale()":"b585209b","owner()":"8da5cb5b","refund()":"590e1ae3","renounceOwnership()":"715018a6","transferOwnership(address)":"f2fde38b"},"id":24}