{"abi":[{"type":"constructor","inputs":[{"name":"_s_owners","type":"address[]","internalType":"address[]"},{"name":"_s_numberConfirmationsRequired","type":"uint256","internalType":"uint256"}],"stateMutability":"nonpayable"},{"type":"receive","stateMutability":"payable"},{"type":"function","name":"confirmTransaction","inputs":[{"name":"_txIndex","type":"uint256","internalType":"uint256"}],"outputs":[],"stateMutability":"nonpayable"},{"type":"function","name":"executeTransaction","inputs":[{"name":"_txIndex","type":"uint256","internalType":"uint256"}],"outputs":[],"stateMutability":"nonpayable"},{"type":"function","name":"getOwners","inputs":[],"outputs":[{"name":"","type":"address[]","internalType":"address[]"}],"stateMutability":"view"},{"type":"function","name":"getTransaction","inputs":[{"name":"_txIndex","type":"uint256","internalType":"uint256"}],"outputs":[{"name":"to","type":"address","internalType":"address"},{"name":"value","type":"uint256","internalType":"uint256"},{"name":"data","type":"bytes","internalType":"bytes"},{"name":"executed","type":"bool","internalType":"bool"},{"name":"numConfirmations","type":"uint256","internalType":"uint256"}],"stateMutability":"view"},{"type":"function","name":"getTransactionCount","inputs":[],"outputs":[{"name":"","type":"uint256","internalType":"uint256"}],"stateMutability":"view"},{"type":"function","name":"revokeConfirmation","inputs":[{"name":"_txIndex","type":"uint256","internalType":"uint256"}],"outputs":[],"stateMutability":"nonpayable"},{"type":"function","name":"s_isConfirmed","inputs":[{"name":"","type":"uint256","internalType":"uint256"},{"name":"","type":"address","internalType":"address"}],"outputs":[{"name":"","type":"bool","internalType":"bool"}],"stateMutability":"view"},{"type":"function","name":"s_isOwner","inputs":[{"name":"","type":"address","internalType":"address"}],"outputs":[{"name":"","type":"bool","internalType":"bool"}],"stateMutability":"view"},{"type":"function","name":"s_numberConfirmationsRequired","inputs":[],"outputs":[{"name":"","type":"uint256","internalType":"uint256"}],"stateMutability":"view"},{"type":"function","name":"s_owners","inputs":[{"name":"","type":"uint256","internalType":"uint256"}],"outputs":[{"name":"","type":"address","internalType":"address"}],"stateMutability":"view"},{"type":"function","name":"s_transactions","inputs":[{"name":"","type":"uint256","internalType":"uint256"}],"outputs":[{"name":"to","type":"address","internalType":"address"},{"name":"value","type":"uint256","internalType":"uint256"},{"name":"data","type":"bytes","internalType":"bytes"},{"name":"executed","type":"bool","internalType":"bool"},{"name":"numConfirmations","type":"uint256","internalType":"uint256"}],"stateMutability":"view"},{"type":"function","name":"submitTransaction","inputs":[{"name":"_to","type":"address","internalType":"address"},{"name":"_value","type":"uint256","internalType":"uint256"},{"name":"_data","type":"bytes","internalType":"bytes"}],"outputs":[],"stateMutability":"nonpayable"},{"type":"event","name":"ConfirmTransaction","inputs":[{"name":"owner","type":"address","indexed":true,"internalType":"address"},{"name":"txIndex","type":"uint256","indexed":true,"internalType":"uint256"}],"anonymous":false},{"type":"event","name":"Deposit","inputs":[{"name":"sender","type":"address","indexed":true,"internalType":"address"},{"name":"amount","type":"uint256","indexed":false,"internalType":"uint256"},{"name":"balance","type":"uint256","indexed":false,"internalType":"uint256"}],"anonymous":false},{"type":"event","name":"ExecuteTransaction","inputs":[{"name":"owner","type":"address","indexed":true,"internalType":"address"},{"name":"txIndex","type":"uint256","indexed":true,"internalType":"uint256"}],"anonymous":false},{"type":"event","name":"RevokeConfirmation","inputs":[{"name":"owner","type":"address","indexed":true,"internalType":"address"},{"name":"txIndex","type":"uint256","indexed":true,"internalType":"uint256"}],"anonymous":false},{"type":"event","name":"SubmitTransaction","inputs":[{"name":"owner","type":"address","indexed":true,"internalType":"address"},{"name":"txIndex","type":"uint256","indexed":true,"internalType":"uint256"},{"name":"to","type":"address","indexed":true,"internalType":"address"},{"name":"value","type":"uint256","indexed":false,"internalType":"uint256"},{"name":"data","type":"bytes","indexed":false,"internalType":"bytes"}],"anonymous":false},{"type":"error","name":"MultiSigWallet__AddressNotAnOwner","inputs":[]},{"type":"error","name":"MultiSigWallet__CannotExecuteTransaction","inputs":[]},{"type":"error","name":"MultiSigWallet__ConfirmationsMustBeGreaterThanZeroAndEqualToOrLessThanNumberOfOwners","inputs":[]},{"type":"error","name":"MultiSigWallet__OwnerMustBeValidAddress","inputs":[]},{"type":"error","name":"MultiSigWallet__OwnersMustBeUnique","inputs":[]},{"type":"error","name":"MultiSigWallet__ThereMustBeAtLeastOneOwner","inputs":[]},{"type":"error","name":"MultiSigWallet__TxAlreadyConfirmed","inputs":[]},{"type":"error","name":"MultiSigWallet__TxAlreadyExecuted","inputs":[]},{"type":"error","name":"MultiSigWallet__TxFailed","inputs":[]},{"type":"error","name":"MultiSigWallet__TxIndexDoesNotExist","inputs":[]},{"type":"error","name":"MultiSigWallet__TxNotConfirmed","inputs":[]}],"bytecode":{"object":"0x60806040523480156200001157600080fd5b50604051620012af380380620012af8339810160408190526200003491620001ca565b60008251116200005757604051630d66f9b160e21b815260040160405180910390fd5b80158015620000665750815181115b156200008557604051630ae8c2d160e21b815260040160405180910390fd5b60005b82518110156200018c576000838281518110620000a957620000a9620002a4565b6020026020010151905060006001600160a01b0316816001600160a01b031603620000e757604051633b1f92ad60e11b815260040160405180910390fd5b6001600160a01b03811660009081526001602052604090205460ff161562000122576040516385765f6960e01b815260040160405180910390fd5b6001600160a01b031660008181526001602081905260408220805460ff191682179055815480820183559180527f290decd9548b62a8d60345a988386fc84ba6bc95484008f6362f93160ef3e56390910180546001600160a01b0319169092179091550162000088565b5060025550620002ba565b634e487b7160e01b600052604160045260246000fd5b80516001600160a01b0381168114620001c557600080fd5b919050565b60008060408385031215620001de57600080fd5b82516001600160401b0380821115620001f657600080fd5b818501915085601f8301126200020b57600080fd5b815160208282111562000222576200022262000197565b8160051b604051601f19603f830116810181811086821117156200024a576200024a62000197565b6040529283528183019350848101820192898411156200026957600080fd5b948201945b8386101562000292576200028286620001ad565b855294820194938201936200026e565b97909101519698969750505050505050565b634e487b7160e01b600052603260045260246000fd5b610fe580620002ca6000396000f3fe6080604052600436106100ab5760003560e01c8063c01a8c8411610064578063c01a8c84146101ef578063c64274741461020f578063e72e2f761461022f578063ec3fe3de1461025f578063ee22610b1461027f578063f6caf71f1461029f57600080fd5b8063117e6408146100f157806320ea8d861461011a5780632e7700f01461013c57806333ea3dc8146101515780637251df1e14610182578063a0e67e2b146101cd57600080fd5b366100ec576040805134815247602082015233917f90890809c654f11d6e72a28fa60149770a0d11ec6c92319d6ceb2bb0a4ea1a15910160405180910390a2005b600080fd5b3480156100fd57600080fd5b5061010760025481565b6040519081526020015b60405180910390f35b34801561012657600080fd5b5061013a610135366004610b43565b6102d7565b005b34801561014857600080fd5b50600454610107565b34801561015d57600080fd5b5061017161016c366004610b43565b61043f565b604051610111959493929190610ba2565b34801561018e57600080fd5b506101bd61019d366004610bf9565b600360209081526000928352604080842090915290825290205460ff1681565b6040519015158152602001610111565b3480156101d957600080fd5b506101e261053a565b6040516101119190610c25565b3480156101fb57600080fd5b5061013a61020a366004610b43565b61059c565b34801561021b57600080fd5b5061013a61022a366004610c88565b610707565b34801561023b57600080fd5b506101bd61024a366004610d53565b60016020526000908152604090205460ff1681565b34801561026b57600080fd5b5061017161027a366004610b43565b610888565b34801561028b57600080fd5b5061013a61029a366004610b43565b610961565b3480156102ab57600080fd5b506102bf6102ba366004610b43565b610b19565b6040516001600160a01b039091168152602001610111565b3360009081526001602052604090205460ff1661030757604051639d01f91360e01b815260040160405180910390fd5b6004548190811061032b57604051637bc99e5560e11b815260040160405180910390fd5b816004818154811061033f5761033f610d75565b600091825260209091206003600590920201015460ff161561037457604051632bf2cfcf60e11b815260040160405180910390fd5b60006004848154811061038957610389610d75565b600091825260208083208784526003825260408085203386529092529220546005909102909101915060ff1615156001146103d75760405163594c417760e11b815260040160405180910390fd5b60018160040160008282546103ec9190610da1565b90915550506000848152600360209081526040808320338085529252808320805460ff191690555186927ff0dca620e2e81f7841d07bcc105e1704fb01475b278a9d4c236e1c62945edd5591a350505050565b600080606060008060006004878154811061045c5761045c610d75565b6000918252602090912060059091020180546001820154600383015460048401546002850180549596506001600160a01b039094169492939260ff9092169183906104a690610dba565b80601f01602080910402602001604051908101604052809291908181526020018280546104d290610dba565b801561051f5780601f106104f45761010080835404028352916020019161051f565b820191906000526020600020905b81548152906001019060200180831161050257829003601f168201915b50505050509250955095509550955095505091939590929450565b6060600080548060200260200160405190810160405280929190818152602001828054801561059257602002820191906000526020600020905b81546001600160a01b03168152600190910190602001808311610574575b5050505050905090565b3360009081526001602052604090205460ff166105cc57604051639d01f91360e01b815260040160405180910390fd5b600454819081106105f057604051637bc99e5560e11b815260040160405180910390fd5b816004818154811061060457610604610d75565b600091825260209091206003600590920201015460ff161561063957604051632bf2cfcf60e11b815260040160405180910390fd5b6000838152600360209081526040808320338452909152902054839060ff16156106765760405163344f862760e11b815260040160405180910390fd5b60006004858154811061068b5761068b610d75565b9060005260206000209060050201905060018160040160008282546106b09190610df4565b90915550506000858152600360209081526040808320338085529252808320805460ff191660011790555187927f5cbe105e36805f7820e291f799d5794ff948af2a5f664e580382defb6339004191a35050505050565b3360009081526001602052604090205460ff1661073757604051639d01f91360e01b815260040160405180910390fd5b600480546040805160a0810182526001600160a01b03878116825260208201878152928201868152600060608401819052608084018190526001860187559590955281517f8a35acfbc15ff81a39ae7d344fd709f28e8600b4aa8c65c6b64bfe7fe36bd19b6005860290810180546001600160a01b0319169290931691909117825592517f8a35acfbc15ff81a39ae7d344fd709f28e8600b4aa8c65c6b64bfe7fe36bd19c84015593519293909290917f8a35acfbc15ff81a39ae7d344fd709f28e8600b4aa8c65c6b64bfe7fe36bd19d01906108149082610e58565b50606082015160038201805460ff19169115159190911790556080909101516004909101556040516001600160a01b03851690829033907fd5a05bf70715ad82a09a756320284a1b54c9ff74cd0f8cce6219e79b563fe59d9061087a9088908890610f18565b60405180910390a450505050565b6004818154811061089857600080fd5b60009182526020909120600590910201805460018201546002830180546001600160a01b0390931694509092916108ce90610dba565b80601f01602080910402602001604051908101604052809291908181526020018280546108fa90610dba565b80156109475780601f1061091c57610100808354040283529160200191610947565b820191906000526020600020905b81548152906001019060200180831161092a57829003601f168201915b505050506003830154600490930154919260ff1691905085565b3360009081526001602052604090205460ff1661099157604051639d01f91360e01b815260040160405180910390fd5b600454819081106109b557604051637bc99e5560e11b815260040160405180910390fd5b81600481815481106109c9576109c9610d75565b600091825260209091206003600590920201015460ff16156109fe57604051632bf2cfcf60e11b815260040160405180910390fd5b600060048481548110610a1357610a13610d75565b9060005260206000209060050201905060025481600401541015610a4a57604051630f073f0b60e21b815260040160405180910390fd5b60038101805460ff191660019081179091558154908201546040516000926001600160a01b03169190610a81906002860190610f39565b60006040518083038185875af1925050503d8060008114610abe576040519150601f19603f3d011682016040523d82523d6000602084013e610ac3565b606091505b5050905080610ae55760405163376e334d60e21b815260040160405180910390fd5b604051859033907f5445f318f4f5fcfb66592e68e0cc5822aa15664039bd5f0ffde24c5a8142b1ac90600090a35050505050565b60008181548110610b2957600080fd5b6000918252602090912001546001600160a01b0316905081565b600060208284031215610b5557600080fd5b5035919050565b6000815180845260005b81811015610b8257602081850181015186830182015201610b66565b506000602082860101526020601f19601f83011685010191505092915050565b60018060a01b038616815284602082015260a060408201526000610bc960a0830186610b5c565b931515606083015250608001529392505050565b80356001600160a01b0381168114610bf457600080fd5b919050565b60008060408385031215610c0c57600080fd5b82359150610c1c60208401610bdd565b90509250929050565b6020808252825182820181905260009190848201906040850190845b81811015610c665783516001600160a01b031683529284019291840191600101610c41565b50909695505050505050565b634e487b7160e01b600052604160045260246000fd5b600080600060608486031215610c9d57600080fd5b610ca684610bdd565b925060208401359150604084013567ffffffffffffffff80821115610cca57600080fd5b818601915086601f830112610cde57600080fd5b813581811115610cf057610cf0610c72565b604051601f8201601f19908116603f01168101908382118183101715610d1857610d18610c72565b81604052828152896020848701011115610d3157600080fd5b8260208601602083013760006020848301015280955050505050509250925092565b600060208284031215610d6557600080fd5b610d6e82610bdd565b9392505050565b634e487b7160e01b600052603260045260246000fd5b634e487b7160e01b600052601160045260246000fd5b81810381811115610db457610db4610d8b565b92915050565b600181811c90821680610dce57607f821691505b602082108103610dee57634e487b7160e01b600052602260045260246000fd5b50919050565b80820180821115610db457610db4610d8b565b601f821115610e53576000816000526020600020601f850160051c81016020861015610e305750805b601f850160051c820191505b81811015610e4f57828155600101610e3c565b5050505b505050565b815167ffffffffffffffff811115610e7257610e72610c72565b610e8681610e808454610dba565b84610e07565b602080601f831160018114610ebb5760008415610ea35750858301515b600019600386901b1c1916600185901b178555610e4f565b600085815260208120601f198616915b82811015610eea57888601518255948401946001909101908401610ecb565b5085821015610f085787850151600019600388901b60f8161c191681555b5050505050600190811b01905550565b828152604060208201526000610f316040830184610b5c565b949350505050565b6000808354610f4781610dba565b60018281168015610f5f5760018114610f7457610fa3565b60ff1984168752821515830287019450610fa3565b8760005260208060002060005b85811015610f9a5781548a820152908401908201610f81565b50505082870194505b5092969550505050505056fea2646970667358221220e42b63779f8da41f351e25692913afef7a4aa522f1e0768c05e526fb1c6f402864736f6c63430008170033","linkReferences":{}},"methodIdentifiers":{"confirmTransaction(uint256)":"c01a8c84","executeTransaction(uint256)":"ee22610b","getOwners()":"a0e67e2b","getTransaction(uint256)":"33ea3dc8","getTransactionCount()":"2e7700f0","revokeConfirmation(uint256)":"20ea8d86","s_isConfirmed(uint256,address)":"7251df1e","s_isOwner(address)":"e72e2f76","s_numberConfirmationsRequired()":"117e6408","s_owners(uint256)":"f6caf71f","s_transactions(uint256)":"ec3fe3de","submitTransaction(address,uint256,bytes)":"c6427474"},"id":20}